:020000040001F9
:10B000008837002015B101002FB1010031B10100D6
:10B010000000000000000000000000000000000030
:10B0200000000000000000000000000033B101003B
:10B03000000000000000000035B1010037B1010040
:10B0400039B1010039B1010015BC010039B101006D
:10B0500051BA010000000000A1B7010039B10100A0
:10B06000CDBB0100E5BB0100FDBB010039B1010012
:10B0700039B1010039B1010039B1010039B1010024
:10B0800039B10100FDB9010039B1010039B1010048
:10B0900005BB010039B101000DBB010039B1010050
:10B0A00039B1010039B101000000000000000000CA
:10B0B0000000000000000000000000000000000090
:10B0C0000348854600F09AFA00480047B90102009B
:10B0D00088370020401E00BF00BF00BF00BF00BF78
:10B0E00000BF00BF00BF00BF00BF00BF00BFF1D165
:10B0F00070470000401E00BF00BF00BF00BF00BF80
:10B1000000BF00BF00BF00BF00BF00BF00BFF1D144
:10B11000704700000321094802680A43026008489A
:10B1200002680A4302600748804707480047FEE775
:10B13000FEE7FEE7FEE7FEE7FEE70000240500402D
:10B14000540500402DBB0100C1B0010030B50B46D5
:10B15000014600202022012409E00D46D5409D42F1
:10B1600005D31D469540491B254695404019154677
:10B17000521E002DF1DC30BD70B50024254600289C
:10B1800001DA01244042002901DA01254942FFF792
:10B19000DDFFAC4200D04042002C00D0494270BDDF
:10B1A00003460B439B0703D009E008C9121F08C0E0
:10B1B000042AFAD203E00B78491C0370401C521E8B
:10B1C000F9D27047D2B201E00270401C491EFBD296
:10B1D00070470022F6E710B513460A4604461946A2
:10B1E000FFF7F0FF204610BD421C0178401C0029EB
:10B1F000FBD1801A704730B504460020034600E0BA
:10B200005B1C934203D2E05CCD5C401BF8D030BDA8
:10B21000F0B51FB40646002082B0054640240191D7
:10B2200000901BE0019922460F46304600F008FAD4
:10B23000049A059B801A994110D31046194622465C
:10B2400000F0EEF9361A8F410197224601200021C5
:10B25000009F00F0E5F938184D4100902046641E2B
:10B260000028DFDC019B00982946324607B0F0BD7C
:10B27000F0B507460846584087B0C00F0490480014
:10B280000E46590040084908BC1A884105D2384684
:10B2900031461E4617460B460246580040081043EA
:10B2A00003D13846314607B0F0BD300D039040055C
:10B2B0005900400D490D0590401A029040286DDA62
:10B2C00018030121000B090508430190049800921E
:10B2D000002805D001995242002088410092019037
:10B2E000029840210A1A0199009800F099F9054640
:10B2F0000C46684607C800F0B4F9C0197141039ABA
:10B300000E0D0023D71756401A467A40164340D0F8
:10B31000049A002A29D0029A012A039A11DC120504
:10B32000C01A914101263605001C7141D20F059EBD
:10B33000D2070093019202962A46234600F0B1F903
:10B34000B1E71605224A0F46B218C01AB7410121CB
:10B350000905001C4F4100187F411146181879411A
:10B36000E20F10436D19644113E0E2076D081543C5
:10B370006408C2071443039A01261205C01A9141BA
:10B380003605001C7141CE07400830434908C018FB
:10B3900051412A46234600F077F984E704980122B8
:10B3A0004000C117121A00238B4104983146C4177C
:10B3B000381AA141EFE730B40124E407634030BC00
:10B3C00056E730B40124E407614030BC50E7000088
:10B3D0000000E0FFF0B51FB488B00B990998002475
:10B3E00048400999C00F490049080991C0070B99C5
:10B3F0000090490049080B9109990898A64608430E
:10B4000003D00B990A98084303D1002001460DB0E0
:10B41000F0BD099801244000420D4800410D0998F3
:10B4200024050003000B204309900B980003000B38
:10B4300020430B9050181A494018002201901446DE
:10B44000104601E0032801DA034600E003239C468E
:10B45000C11A0AAE0AE05F0008ADED5B4F00F75B72
:10B460007D430027AA187C415B1E491C6145F2DD23
:10B47000410004AB5A522104120C0A43240C401C14
:10B480000828DFDB01980290009970460191009036
:10B49000059B049A0799069800F003F9B7E70000A6
:10B4A0000DFCFFFFF0B50C465C4085B0E40FE407EF
:10B4B00003944C000026640859009446490802464B
:10B4C0000296224321D062460A431ED06200570DE5
:10B4D0004A000E032303550D012402462C4924057E
:10B4E000781B1B0B360B4018234326436146009004
:10B4F0001C46501AB44103D30098401C009002E04F
:10B50000921800985B41002803DA0020014605B03C
:10B51000F0BD0020012109050746864611E064467A
:10B520001D46141BB54106D36546521BB3417446F4
:10B5300007430C43A646CD07400849082843921804
:10B540005B4105460D43EAD11046184313D06046CF
:10B55000194650407140084303D100220123DB0704
:10B5600009E06046101AB34102D20122002302E032
:10B570000122D2435310009874460105381C6141E2
:10B58000029C039D0019694100F07EF8BFE70000AE
:10B59000FD0300004A0009030123090B1B051943A1
:10B5A0000A4B10B5520D9A4202DA0020014610BD36
:10B5B000064B34339A4203DC9A1A00F041F810BD6E
:10B5C000034BD21800F02CF810BD0000FF03000060
:10B5D000CDFBFFFF10B5002904DB0124E407404246
:10B5E0008C412146002B04DB1C460123DB07524221
:10B5F000A341994200D1904210BD0000064C0125A4
:10B60000064E05E02046E36807C82B4398471034F0
:10B61000B442F7D3FFF758FD2C3102004C31020041
:10B6200010B5202A04DB0146203A9140002010BDCD
:10B63000914020239C1A0346E3401943904010BDDB
:10B6400010B5202A04DB0846203AD040002110BD66
:10B650000B46D340D0402024A21A914008431946FB
:10B6600010BD10B5202A06DBCB170846203A104142
:10B67000C1170B4306E00B461341D0402024A21A09
:10B6800091400843194610BD10B5002B08DA00247C
:10B69000401C614192185B411A4301D140084000AF
:10B6A00010BDF0B51FB482B005460C0003D00846AB
:10B6B00000F0C4FA02E000F0C1FA20300246009027
:10B6C00021462846FFF7ACFF049B059A04460F4627
:10B6D00018431143084303D12046394607B0F0BD53
:10B6E0001846104317D0009840210A1A18460599A9
:10B6F000FFF7A6FF05460E46009A05990498FFF746
:10B700008FFF084301D0012000E00020C11705434E
:10B710000E432C43374300990E986305401A790570
:10B72000E40A0A3000220C43FD0A002802DA002055
:10B730000146D3E70105101969410C9C0D9D0019C4
:10B740006941FFF7A1FFC9E770B58C180578401C67
:10B750006B075B0F01D10378401C2A1106D10278D8
:10B76000401C03E00678401C0E70491C5B1EF9D19A
:10B770002B0705D40023521E0DD40B70491CFAE789
:10B780000378401CCB1A921C03E01D785B1C0D70E3
:10B79000491C521EF9D5A142D8D3002070BD00002B
:10B7A000F0B50025FF2487B0013401262F4603950C
:10B7B000204605F01BFD002808D04948406830426B
:10B7C00004D048480021201835430160241D76002C
:10B7D0007F1CA4B2042FEBD3FF207D3005F006FDC3
:10B7E000002807D0404900200860480705433F482B
:10B7F000006903903E4C280713D0012700263846E5
:10B8000028420AD03B48B200111808690969C004EF
:10B81000C00E8903A258890F90477F00761C042E22
:10B82000EDD3002D59DA00200290401E4FE0A119FF
:10B83000403108788506AD0E42B2521C3BD0012142
:10B84000A9400091059A114235D0800901902846FF
:10B8500002F0AAFF800020580490002804D001982C
:10B860000099032804D006E00198032823D1009909
:10B87000029808430290204AA80080180068039AA2
:10B880008003800F114202D0022802D013E0032867
:10B8900011D10199032907D102281CD00221284681
:10B8A00005F06CFC7F1CFFB20498002803D0049ABA
:10B8B000284601999047761C042EB8D3002F0CD04F
:10B8C0000A4800690399884207D00390029800272C
:10B8D0003E460590ABE70321E1E707B0F0BD00006D
:10B8E00000630040006000407C61004000050050A3
:10B8F000D42D0020006500400007005070B50124E1
:10B90000104EA502F56000F025F807F0B9FA04F032
:10B9100023F90D49002802D00878204308700A79DD
:10B9200009490020243100F029F8002807D00649F1
:10B93000062224310548FFF733FC05480470B56042
:10B9400070BD000000050050F42000205C2900209C
:10B950008520002010B507F093FA322003F02EFA6C
:10B9600000F05CF804F0F8F8002804D00248012246
:10B9700001781143017010BDF420002007B502AA20
:10B98000002006F0A1FA002800D001200EBD000022
:10B990008307FF22DB0E9A408907090E9940002891
:10B9A0000BDA0007000F0838830808489B001B18B3
:10B9B000D86990430843D8617047830804489B00C6
:10B9C0001B181868904308431860704700ED00E0AA
:10B9D00000E400E010B503480078052005F0FEFB08
:10B9E00010BD0000F520002010B5034800780520A8
:10B9F00005F0DCFB10BD0000F520002010B5064965
:10BA00000020086048608860C860034940390860C9
:10BA1000486006F035FF10BD4011014010B50B48DD
:10BA2000142101700122427081700021C170042133
:10BA300007F038FA002807D14021044806F06EFAD2
:10BA4000002801DD012010BD002010BD202A0020AB
:10BA500070B5FF210B480931094C0025455021469E
:10BA600006F04EFF002809D1A07EFF2801D005F086
:10BA7000ADFB657625712168201D884770BD0000EB
:10BA8000602A00200040004070B50446022005F006
:10BA90008DFB0025022005F089FBE00703D0042080
:10BAA00005F09CFB02E0042005F080FB022005F07D
:10BAB00095FB6408022005F079FB6D1CEDB2082DA2
:10BAC000E8D370BDF8B50024042005F06FFB022018
:10BAD00005F06CFB00250A4E8027306964080007DA
:10BAE000C00F00D03C43022005F078FB022005F097
:10BAF0005DFB6D1CEDB2082DEFD32046F8BD0000B4
:10BB00000005005010B506F051FE10BD10B50648F6
:10BB10004068002805D08047002801D000F006FFCB
:10BB200010BD04F0A3F810BD6C22002010B504F085
:10BB30007DF9002805D01F491D484860C8131E49DB
:10BB400088611E48018CC9B201290BD1828C120771
:10BB500008D1028D1206120F042A03D1828D12061B
:10BB6000120F0AD0012921D1818C09071ED1018D24
:10BB70000906090F0A2904D007E0114A0121916042
:10BB8000F5E7828D1206120F05D00D290ED1808D9A
:10BB90000006000F0AD10B480168012904D00A49A8
:10BBA000016001680129FCD1C021416110BD000084
:10BBB000DFFF07C000050040006C0040C00F00F030
:10BBC0000006004000EC06407593000010B504220A
:10BBD0000249034804F0C4F810BD0000BC2A00204C
:10BBE0000080004010B504220249034804F0B8F870
:10BBF00010BD0000C82A00200090004010B50422AB
:10BC00000249034804F0ACF810BD0000D42A00201B
:10BC100000A0004010B506F0B3FF10BD0FB410B582
:10BC200003A9044B044A029800F0E8F810BC08BCD1
:10BC300004B0184711F90100682200202021020CED
:10BC400001D010211046020A01D00839104602091D
:10BC500001D0091F1046820801D0891E10464208F3
:10BC600001D0881E7047081A704730B47446641EAD
:10BC70002578641CAB4200D21D46635D5B00E3186F
:10BC800030BC184702E008C8121F08C1002AFAD1C8
:10BC900070477047002001E001C1121F002AFBD14C
:10BCA00070470000F0B51FB484B007980699020DE4
:10BCB00001430FD10F98012449A3012807D004980C
:10BCC0000F9A84600360C260416009B0F0BD0E98B5
:10BCD000C143F4E7434844491018484305140F98FA
:10BCE00001280E980BD0281A401C00243F4E4049D2
:10BCF000009401910290002803DA474216E0404286
:10BD0000F3E7074612E0F80707D0224633460199C9
:10BD10000098FFF75FFB01910090224633461046E2
:10BD20001946FFF757FB04460E467F10002FEAD155
:10BD30000298019B0028009A0799069802DAFFF7FB
:10BD400049FB01E0FFF7AEFB04460E460022294BFB
:10BD5000FFF740FC03D80020C043014607E0002263
:10BD6000254B20463146FFF783FAFFF713FC1024DA
:10BD700009E0002C0ADB0A220023FFF749FA059BA1
:10BD800030321A55641E02460A43F2D1641C112255
:10BD9000059B121B1C190F9B012B08D00123084384
:10BDA00002D10E9882420DDD00236D1C0EE0084387
:10BDB00003D10E98151A6D1E0AE011200E90002076
:10BDC0000F908CE7824201DA00236D1E002B86D093
:10BDD00004980F99456004608260C16075E70000B7
:10BDE0003000000001FCFFFF104D00000000244067
:10BDF0000000F03F0000F0430000E03FFFB597B0C7
:10BE0000064600251FE2252879D10024F949274656
:10BE1000761C049432780120203A904002460A426F
:10BE200002D00443761CF5E730782A280ED002228F
:10BE3000307801463039092916D804990A23594324
:10BE4000303940181443761C0490F1E7189802C862
:10BE500004911890002904DA012040030443484269
:10BE6000049002200443761C30782E2814D104203C
:10BE70000443761C30782A2809D11898761C80C88B
:10BE8000189009E00A214F43303FC719761C3078DB
:10BE9000014630390929F5D930786C2810D006DCF4
:10BEA0004C281AD068280ED06A2817D104E07428CC
:10BEB00013D07A2812D110E00120400504430CE091
:10BEC0000121090501E0032109050C437178814234
:10BED00003D10120761C00052418761C30781190BF
:10BEE00066280BD013DC58287ED009DC00287CD0D3
:10BEF0004528F6D04628F4D047281AD1AAE118E000
:10BF0000632836D0642871D0652812D1A2E1702848
:10BF10006DD008DC6728F1D069287CD06E280DD060
:10BF20006F2806D1BDE073282FD0752872D07828ED
:10BF30005AD01A9A199990476D1C83E16002400FFC
:10BF4000022809D003280DD00428189801680DD0C4
:10BF5000001D0D60189075E11898EA1702C80D6071
:10BF60004A60F7E7189802C80D80F3E7001D0D70CE
:10BF7000F0E718986A460178001D117218900020A9
:10BF8000507202A80090012005E0189802C818908D
:10BF900000200091C04361070DD5002101E0019907
:10BFA000491C0191B94212DA8142F8DB009A515CD6
:10BFB0000029F4D10BE0002101E00199491C019115
:10BFC0008142FADB019A0099895C0029F5D1019937
:10BFD00004981A9B471A21463846199A00F09AFA93
:10BFE0000199401945180BE051E030E113E050E0B1
:10BFF000009800990078491C00911A9A1999904765
:10C000000198401E0190401CF2D1214638461A9BEF
:10C01000199A14E139E00A20002100900191600290
:10C02000410F022907D0189A01CA1892C2179446E4
:10C0300003290AD00CE01898C01DC108C9004A683D
:10C04000086808319446189107E000B2C217944678
:10C05000042902D140B2C1178C46002261469445A2
:10C0600006DA0A460021404291418C462D2102E029
:10C07000210504D52B216A461173012103E0E10754
:10C0800001D02021F7E7029151E00A200AE01020B8
:10C0900008E01020009000210420044301910827AB
:10C0A00003E008200021019100906002410F022965
:10C0B00007D0189A01CA18920022944603290AD080
:10C0C0000AE01898C01DC108C9004A68086808310C
:10C0D0009446189103E080B2042900D1C0B2002137
:10C0E0000291210723D51199702928D0009A102197
:10C0F000019B4A401A4309D16146014306D03021D1
:10C100006A4611731199517302210291009A082114
:10C11000019B4A401A430AD16146014301D161079C
:10C1200005D530216A46117301217F1E02911199B4
:10C13000582909D030A10E910DA90D9112E040218E
:10C140006A4611730121E0E730A1F4E76146019BE3
:10C15000009AFFF75DF80E9B8C469B5C0D9A521E71
:10C160000D92137061460143F0D10D9805A9081A8C
:10C1700020300190600703D501200004844300E0D3
:10C1800001270198874201DD381A00E0002001995B
:10C1900000904118029809180498401A0490E0038E
:10C1A00006D421461A9B199A049800F0B3F9451950
:10C1B000002706E003A81A9AC05D199990476D1CE4
:10C1C0007F1C02988742F5DBE0030CD521461A9BC1
:10C1D000199A049800F09EF9451904E01A9A302043
:10C1E000199990476D1C0099481E00900029F5DCB4
:10C1F0001FE0000009280100303132333435363772
:10C2000038396162636465660000000030313233A2
:10C210003435363738394142434445460000000042
:10C220000D980D990078491C0D911A9A199990470B
:10C230006D1C0199481E01900029F1DC4CE100F0D1
:10C2400059F94519761C3078002800D0DBE52846DE
:10C250001BB0F0BD600700D406271898C01DC108A8
:10C26000C90048680A680831C30FDB071891190034
:10C2700001D09CA108E0210501D59BA104E0E107C4
:10C2800001D09AA100E09AA1430011985B08109197
:10C2900065280CD006DC452809D046281DD0472843
:10C2A00041D141E0662818D067283CD13CE000210C
:10C2B000112F01DB112000E0781C0191009008A9EA
:10C2C00011A8FFF7EFFC139905910021119A15921F
:10C2D0007F1C12980197009150E00120C007039045
:10C2E0000120019008A9009711A8FFF7DBFC139A21
:10C2F000149905920022119B009212981593059AA9
:10C300000192002901D0104602E0791C40180190EA
:10C31000381A01D5019804E04042401E0090781C74
:10C320000190C01B029043E0012F00DA0127002199
:10C33000112F01DD112000E038460191009008A97D
:10C3400011A8FFF7AFFC13990591119A00211298DB
:10C3500015920091019721070CD40599B94201DB90
:10C36000019900E00191012904DD159A491E515CF3
:10C37000302906D0B84201DA011D05DA0121029107
:10C3800015E00199491EEDE7002805DC00994118E8
:10C3900000910199091A03E0019A411C914200DDC4
:10C3A00001910099401A401C02900120C00703909F
:10C3B000200706D402990198814202DB0020C04385
:10C3C000029000206946C87707AF01210398033720
:10C3D000C907884224D0022011902B201290039884
:10C3E00000280CDA404203902D20129007E00A2129
:10C3F0000398FEF7ABFE30317F1E03903970119920
:10C40000481E11900029F2DC03980028EFD1791E14
:10C41000129808703078202108404530BF1E3870CF
:10C4200006A8C01BC01D039010980078002800D0FB
:10C430000120019941180298C0170918039809189A
:10C440000498401A401E0490E00306D421461A9B2B
:10C45000199A049800F05EF84519109800780028A1
:10C4600003D01A9A199990476D1CE00323D52146F1
:10C470001A9B199A049800F04DF845191BE0009892
:10C48000002807DB00990598884203DD1598405C79
:10C49000199901E0199930201A9A904700986D1C5B
:10C4A000401C00900298401E029004D11A9A2E203F
:10C4B000199990476D1C0199481E01900029DEDCF6
:10C4C00005E038781A9A7F1C199990476D1C0399DA
:10C4D000481E03900029F4DC21461A9B199A0498FF
:10C4E000ADE600002D0000002B0000002000000041
:10C4F00000000000F8B5044600251E4617468804D3
:10C5000004D405E039462020B0476D1C641EF9D5DF
:10C510002846F8BDFFB50446002581B01E46C80375
:10C5200001D5302700E02027880404D505E03846EF
:10C530000399B0476D1C641EF9D5284605B0F0BDBF
:10C54000F7B584B00025168807461580406B144661
:10C55000002813D003780598032E51D302210170CF
:10C5600021881122491C89B2218042542188491C0A
:10C5700089B2218043542088401C2080386B0028D9
:10C580001DD005462088059902461232B24237D89E
:10C5900011220A5420881022401C80B220800A54A4
:10C5A0002088401C20800F202A5C2388401ECA540B
:10C5B000228840B2521C22800028F5DA0025384635
:10C5C00020300290807B002806D033462246059911
:10C5D00003F0F4FC050014D10298407B002806D03B
:10C5E00032462146059801F07BFA050009D1B8785A
:10C5F000002823D0059886462088001DB04202D925
:10C600000C2007B0F0BD684679DF0028F9D12188F9
:10C6100003207246505420881921401C80B220808B
:10C62000115420887146401C80B220804118684611
:10C63000008806F037FB218840182080F878002811
:10C6400017D0218803230A46FB56C91C0598B1421E
:10C65000D6D80221815421880122491C89B2218027
:10C6600042542188491C89B2218043542088401CAF
:10C6700020807868002817D021880023C3560A46F6
:10C68000C91C0598B142BBD80221815421880A22D5
:10C69000491C89B2218042542188491C89B22180D9
:10C6A00043542088401C2080388900280AD00094F8
:10C6B00038460196062202210830059B06F071FBE0
:10C6C00005009ED1388A00280AD000943846019689
:10C6D000072203211030059B06F063FB050090D173
:10C6E000388B00280AD00094384601961522142170
:10C6F0001830059B06F055FB050082D1386A0028EA
:10C7000006D033462246059902F050FA0500D8D1EA
:10C71000786A002806D033462246059903F09CFE2D
:10C720000500CED10298007B002807D03346224670
:10C730003846059905F068FD0500C2D13878002813
:10C7400007D0334622463846059903F0B9FE050066
:10C75000B7D1284655E710B5012202210D2001F07E
:10C7600083FE002801D0072812D1072202210F20C2
:10C7700001F07AFE002801D0072809D10A22002101
:10C780000D2001F071FE002801D0072800D1002003
:10C7900010BD000000B5B9B0382101A8FEF719FDA1
:10C7A000022168460171002181710521C171382182
:10C7B0000FA8FEF70EFD012110A881811A481490E0
:10C7C00024221A491DA8FEF7EBFC18492422243123
:10C7D00026A8FEF7E5FC1549242248312FA8FEF7CC
:10C7E000DFFC11481438017A1148312911D032295F
:10C7F00007D033290DD035290BD00E4B2FAA00902E
:10C800000AE00C4B1DAA009006E000F08FF839B04A
:10C8100000BD084B26AA0090002101A800F09AFE56
:10C820000028F2D1F3E7000094200020882F0200B6
:10C830004DD501007D1202000448426802210B46DA
:10C84000934383600A40C2607047000000050050B7
:10C8500070B50024074D05E06968E000085C03F04E
:10C86000C3FE641C28788442F6D30348006800F0B5
:10C87000FDFC70BD342200202431020070B500247C
:10C88000064D06E06968E000085C012103F0D0FE77
:10C89000641C28788442F5D3002070BD3422002027
:10C8A000F8B515460C460646052A01D20720F8BD04
:10C8B00003F090FF002803D103F062FF0028F6D1B7
:10C8C000104900204E600C70C8608D6008610E4DEC
:10C8D0000DE0E00069688019009181786A46517026
:10C8E00000780A4A694603F0F3FE0028DFD12046AB
:10C8F000641EE4B20028ECD1054A0021024800F091
:10C9000001FCF8BD3422002024310200A1FB01000B
:10C91000C5ED0100BFF34F8F03490248C860BFF364
:10C920004F8FFEE70400FA0500ED00E00EB5002190
:10C93000029000916A4601910148FFF7EBFF0EBD9E
:10C9400001400000014B1B6818470000E42B002049
:10C9500010B58268C3689A1A03D002F06BFF0020FA
:10C9600010BD052010BD002906D0002A02D0531E9C
:10C97000134203D0092070470E2070470160838066
:10C9800000218160C1600846704710B58268C368A5
:10C990009A1A83889A4203D802F056FF002010BDED
:10C9A000042010BD38B50C46A2680C235A43064B30
:10C9B00009789D58054A126A0092024620460830BE
:10C9C0002369A84738BD0000042F00201022002052
:10C9D00010B5064914230A785A435118091DFFF768
:10C9E000E1FF042005F040FD10BD0000382E0020BE
:10C9F00010B504F05DFE5648102181800921C180E8
:10CA0000544901600146503904F0CCFE504A0021DF
:10CA1000483A1046083804F0B7FD4D4A0121403A23
:10CA20001046103804F0B0FD494A0221383A104649
:10CA3000183804F0A9FD464A0321303A1046203840
:10CA400004F0A2FD424A0421283A1046283804F096
:10CA50009BFD3F4A0521203A1046303804F094FDF2
:10CA60003B4A0621183A1046383804F08DFD384A02
:10CA70000721103A1046403804F086FD344A082158
:10CA8000083A1046483804F07FFD3149002310224F
:10CA90004839314804F032FE2D492F480023102236
:10CAA0004039103804F02AFE29492B48002310226F
:10CAB0003839503804F022FE254927480023102237
:10CAC0003039403804F01AFE21492348002310224F
:10CAD0002839303804F012FE1D491F480023102267
:10CAE0002039203804F00AFE19491B48002310227F
:10CAF0001839803804F002FE154917480023102227
:10CB00001039903804F0FAFD11491348002310221F
:10CB10000839B03804F0F2FD0F48B438011D1EC9C1
:10CB200014301EC02438014624311EC954301EC0A2
:10CB30006438014634311EC944301EC00649002005
:10CB4000903939220A54401CC0B20728FAD310BDCC
:10CB5000EC20002021F80100DC29002070B50546FA
:10CB600040680B4E0179715C0124FF290DD0FE292C
:10CB70000CD004F06BF801466868064B007982001F
:10CB80009A58914202D1FF2131540024204670BDB1
:10CB900029210020A42A002070B5044600680D4613
:10CBA000008B642180B25043FEF7D0FA82B229464E
:10CBB000204600F001F870BDF7B5054604680198FD
:10CBC0000C21484307192320005D1646022801D096
:10CBD0000820FEBD7868B04206D1E169002945D041
:10CBE00068680079884741E02846FFF7B7FF0028CA
:10CBF00001D01120FEBD69681D4A0979FE205054FC
:10CC00007968002902D0A069814210D3002E02D099
:10CC1000A069B04205D832462846019904F07AFF4F
:10CC200014E032462846019904F0AEFF0EE0002ED3
:10CC300001D0B04205D832462846019905F02EF8B9
:10CC400004E032462846019905F0AEF82868C0692C
:10CC500000280BD06868064A007902214000D21CE7
:10CC6000821801981154686804F026F80020FEBD6F
:10CC700029210020FFB581B005460768029E0C20DF
:10CC800046432320C05DF419002802D0082005B0D7
:10CC9000F0BD002060600498A0722C4800680090ED
:10CCA000304629680A30085C002808D00020694610
:10CCB0004870039803F096FD002816D101E001208A
:10CCC000F5E70398B8510127039938468840049A3C
:10CCD0001F49002A01D0C86000E088600026A01922
:10CCE000083003F035FE002801D00420CFE7761C81
:10CCF000F6B2022EF3D3207A03F07EFE607A03F0C0
:10CD00007BFE206803F0BAFD06466868029903F0CE
:10CD1000C3FF0146207A324603F04EFE206803F03E
:10CD2000ADFD06460221686803F0B6FF0146607A51
:10CD3000324603F041FEE7726968064A097900202D
:10CD400049008A1802995054A1E7000018300200E7
:10CD5000000500502C210020F8B506460768406801
:10CD600003F0BCFF0221706803F09DFF0024381916
:10CD70002030007803F040FE641CE4B2022CF6D3AD
:10CD8000002420460C214843C519E97A002912D015
:10CD900031680A30085C0028287819D001218140C8
:10CDA0000E48C160286803F073FD287A03F024FE62
:10CDB000687A03F021FE641CE4B2022CE1D37068AF
:10CDC0000021006804F04AFB01202037F870F8BD0C
:10CDD0000121814001488160E4E700000005005026
:10CDE000F8B50768054600246A68204612790C21C8
:10CDF00048435300174AC61900219A181155F17A71
:10CE000000290DD029680A30085C002820D00021B4
:10CE1000306803F065FD306803F04AFD0020706063
:10CE2000641C022CE0D369680A4AFF200979D21EEB
:10CE3000505468680121006804F010FB686803F032
:10CE400012FF686803F056FF02202037F870F8BD23
:10CE50000121DDE72C210020F7B588B00E00054642
:10CE600009D02C68204620300690C078002804D0D5
:10CE700008200BB0F0BD0B20FBE703F0DBFE002821
:10CE800003D0852801D00420F3E703F0A3FC002899
:10CE900005D103F075FC002801D00320E9E70698CE
:10CEA000FF210170069841700698817000200746A6
:10CEB0000C2141430B19DF72FF221A725A720022B1
:10CEC000D243401CC0B262500228F1D30027E019BF
:10CED000203003F03DFD002809D17F1CFFB2022F56
:10CEE000F5D32046223003F033FE002803D0284635
:10CEF00004F078FDC7E70027B8003258501C12D064
:10CF0000F019037A39462846FFF7B4FE049000284A
:10CF100004D0284604F066FD0498AAE700223946AA
:10CF20002846FFF749FE7F1CFFB2022FE4D3002002
:10CF30000922244B316901E04908401C994201D97A
:10CF40009042F9D3204A5168926802920191694651
:10CF5000087168681D4A0079029001A9686803F0A9
:10CF6000EFFE070004D0284604F03CFD384680E779
:10CF700068680522006812028018316900690E0194
:10CF8000C640A661686803F06EFE0127009704237F
:10CF900032460221686803F0BBFE0221686803F094
:10CFA00082FE0A98E061686809490079094A8000B0
:10CFB0000D506968FF20097950540698C770002009
:10CFC00057E70000FF0F000018300200BD1A0200F2
:10CFD000B02A00202921002070B50F4B05241D78B0
:10CFE0005E78AE4215D01D781C789E88B44201DA76
:10CFF000641C00E000241C705C88DE686C43A4198B
:10D0000004609B68E800C418A4880C8018580024A9
:10D010001060204670BD00003C210020F7B5244C74
:10D0200082B060880E4681423FD800256846214F75
:10D03000057000F01DFA22786078A188884201DA34
:10D04000401C00E00020C0B2904204D16846007845
:10D0500000F02CFA27E065786078884201DA401CFD
:10D0600000E0002060706846007800F01FFABD42C2
:10D0700019D0A068EF000499C151029900290CD081
:10D08000002E0AD0608832464543E0682818FEF733
:10D0900087F8A0683818868002E00021381881805F
:10D0A000002005B0F0BD0420FBE70920F9E70000EF
:10D0B0003C210020FFFF00000EB504E06846818897
:10D0C000029A0098904702AA01A96846FFF784FFD8
:10D0D0000028F3D00EBD000030B5CB0008339DB260
:10D0E00093070024002B01D0072030BD044B9A6029
:10D0F0005219DA605C701C7058809980002030BD35
:10D100003C210020094B9B68002B07D0002A07D048
:10D11000002805D00068037C002B03D0082070474E
:10D120000720704741744261002070474822002068
:10D1300010B50446082902D00020FFF7F7FB21684C
:10D140006068884710BD00001CB501910090034A3B
:10D1500008216846FFF762FF1CBD000031D10100C5
:10D16000FFB59007002581B014460E46002832D145
:10D170001B4F002C31D004F043FF0498786103204A
:10D1800038702246BC6018340020334618214B43C7
:10D19000C10089180D704D708E704C601C19401CB8
:10D1A0000328F5DBFD607D7001240E48BD70240569
:10D1B000046003211420FEF7EBFB0B4804600B4CCA
:10D1C0000198A06003211120FEF7E2FB606838613E
:10D1D000002005B0F0BD0720FBE7BD60FBE70000C5
:10D1E0004822002080E200E000E100E0001501405C
:10D1F000FEB50D461B4917468968044600292AD00A
:10D20000002C28D0052D01D20720FEBD6069002822
:10D2100021D0607C012820D0002605F085FDC000CB
:10D220001049019089684018694605F0A7FD00285B
:10D2300015D0012101700C49446049680830E2C0F2
:10D24000084901988968411868460078487005F0D7
:10D25000EFFA0020FEBD0820FEBD2E46DDE70420CB
:10D26000FEBD00004822002000150140F8B5134D16
:10D270000446A96800291CD0002C1AD06069002837
:10D2800017D00026267405F04FFDC700A868694630
:10D29000381805F073FD00280DD00221017044609C
:10D2A000A868391868460078487005F0C1FA304619
:10D2B000F8BD0820F8BD0420F8BD00004822002079
:10D2C00010B5044609488168C2688088511A8142B5
:10D2D00007D10121064803F017FE002801D00520E0
:10D2E00010BD21460148FFF733FB10BDB42D0020CF
:10D2F0000922002070B50446224888B01E460D0061
:10D3000042601CD0A888296882B21F48FFF72BFB17
:10D31000002815D1A889A96882B21B481030FFF7F0
:10D3200022FB00280CD1202218496846FDF738FF5F
:10D33000A06806902079002804D0012103E007208E
:10D3400008B070BD00216846017506776079002835
:10D3500000D00E2069464875E0780290A0780390CE
:10D3600020780190607800900949684603F064FDD8
:10D370000028E5D103F0EEFD02480121401C03F036
:10D38000C3FDDDE708220020B42D0020BC300200E0
:10D39000D12A020010B501460A48FFF7F6FA040048
:10D3A0000ED103F07DFE00280AD107490548FFF79A
:10D3B000CFFA002804D10121034803F025FE0446DA
:10D3C000204610BDC42D00200822002070B5204C3E
:10D3D00000256079002817D02046657100231022AF
:10D3E0001C49543004F0AAFA1A492046002310229E
:10D3F00010395C3004F0A2FA1649204600231022AE
:10D400003039643004F09AFAA0797D26360100287C
:10D410000AD0207A342807D0A5710FA0FEF7FEFBB2
:10D42000304603F0A3F83CDFE07900280ED0E57128
:10D430000BA0FEF7F3FB304603F098F8BFF34F8FD5
:10D440000A490948C860BFF34F8FFEE770BD00006E
:10D45000802000205C290020736C6565700000004E
:10D4600072657365740000000400FA0500ED00E0C9
:10D4700030B5EFF3108172B6094A54680123002CCD
:10D4800004D00370002900D162B630BD5360054B53
:10D490001D68054C254015601C6000220270F1E7F4
:10D4A0008022002080E100E0FC06FFBC08494A68B9
:10D4B000002A0CD000280AD1EFF3108072B60A6857
:10D4C000044B1A6000224A60002800D162B67047FF
:10D4D0008022002000E100E0800B01D00020704796
:10D4E00001207047F0B50C4693B01F216A461180A9
:10D4F000072600279180002809D0C17849070DD55B
:10D5000002A9FFF71DF8002809D102AD01E00025AE
:10D510001780002C0ED0E078002802D0304613B0DF
:10D52000F0BD01AA0AA92046FFF70AF80028F6D1A3
:10D530000AAA02E068460022878068468088C3B253
:10D5400068460088C1B2284672DFE8E710B5FFF7E9
:10D55000EDF910BD70B50D4604991646040042D091
:10D56000002E40D0424800224271C3600161242253
:10D5700031464048FDF714FE00F0ECF83D493431E7
:10D580000846103801602031816038215C38FDF791
:10D5900020FE3848217838380170A1788170E17810
:10D5A000C170617841706269216942610161E2681C
:10D5B000A168C26081600146E369A269CB618A61AA
:10D5C000616A002919D00146AC310246B832416285
:10D5D0008A60636A1B880B80616A436A89889980C4
:10D5E0000021436A06E00E2070BD666AB668765C6C
:10D5F0005654491C9E888E42F7D8A16A00291CD037
:10D600001C4AAC3211460C398A608162A36A9B883D
:10D610008B80A16A836A098819800021836A04E0EB
:10D62000A66AB668765C5654491C9E888E42F7D826
:10D630002C210A5D0F4918390A73216A002909D083
:10D640000B4914310162226A52884A80216A026AB7
:10D65000098811806168002904D00549891D41604D
:10D6600061684160034829463838FFF73BFF70BDC9
:10D67000D4210020AC2C002010B502881C4C102AAC
:10D6800017D00021112A1AD01B2A11D1007A0028A4
:10D690000ED1607901281ED0022822D0032822D082
:10D6A000042805D12171E2680846002A00D090477D
:10D6B00010BD817D0129FBD18088208110BD617062
:10D6C000808821898842F9D1012005E0216900295B
:10D6D000F4D0884710BD022000F070F80028F5D182
:10D6E00010BD0320F8E7032020710420F4E70000B8
:10D6F000D421002010B5022801D003280ED1084CF7
:10D70000207800280AD000202070607900F056F8B8
:10D71000002803D02169002900D0884710BD0000EF
:10D72000D421002030B50A4BD97800290ED01A46F2
:10D730000178183211700021441855186478491C7A
:10D740006C700629F8DB0020D87030BD082030BD91
:10D75000D421002010B507210148FDF73AFD10BD86
:10D76000EC21002010B51348007801281FD1124C7D
:10D77000607800281BD16079002802D074DF00286F
:10D7800016D101200B49607006203839C87009484D
:10D7900000213838FFF7A6FE002809D1607900F093
:10D7A0000DF8002803D02169002900D08847002007
:10D7B00010BD0000AC2C0020D4210020F0B5784C26
:10D7C00087B06071002606A8069603F0C9FE0127FF
:10D7D000082802D0002808D104E006A802F0A0F82A
:10D7E000002804D10698002801D02770D4E0FFF764
:10D7F000B1FF6C4D6878002802D06079012807D00D
:10D80000A87800280CD06079012801D0022824D102
:10D81000E168002903D0E7700820884700E0E6703F
:10D820006079012808D16878002809D05C4819304F
:10D8300003F030FE002803D06079022802D00CE00B
:10D8400002206071A878002805D05548193003F0EF
:10D8500021FE002801D103206071287B002804D11B
:10D860006079032801D104206071287E002804D14A
:10D870006079042801D166712671E16800290AD017
:10D880006079032801D0042805D12878002802D027
:10D890006078002817D0A67018216846FDF799FC1B
:10D8A00068460670019606720396607901280ED0CC
:10D8B000022815D03B4E243637465C3F03281BD048
:10D8C00004285DD13AE0A77007208847E4E7344890
:10D8D000183001906846077046820682277152E030
:10D8E0002F48183001906846077029894182A9881D
:10D8F00001820220207146E0A88A69464882288A6F
:10D9000008822848243005F0C4FA002805D0287879
:10D91000002802D06078002801D003202FE00220E8
:10D920006946087204200396F8701E4800213838B2
:10D93000FFF7D8FD002830D1052020E0A88B6946EC
:10D940000882288C48821748243005F0A2FA002863
:10D9500005D02878002802D06078002801D0042063
:10D960000DE002206946087204200396F8700D4805
:10D9700000213838FFF7B6FD00280ED106202071AF
:10D980006079002803D0684673DF002805D1E1687C
:10D99000002901D020798847002007B0F0BD0000A1
:10D9A000D4210020AC2C0020F0B5124B997800292E
:10D9B00008D0114905790D71047B0C730E4E0021BE
:10D9C000303606E00820F0BD8A008768491CBF5841
:10D9D000B7508C42F8D8084C0021103404E08A007B
:10D9E0000668491CB658A6508D42F8D80020987099
:10D9F000F0BD0000D4210020D02C002070B50546D9
:10DA000001461C220E48FDF7CBFB0E4C002626706B
:10DA10002968002906D00822201DFDF7C1FB201D22
:10DA20007ADF02E00748001D7BDF002807D1401E97
:10DA300060806670044A00210448FFF763FB70BDF4
:10DA4000982D0020F4210020C52C0200A8300200EF
:10DA5000F8B5214C028800271E4DE689102A15D002
:10DA60001E49112A21D0122A2DD0502A1CD1801DE6
:10DA70000288B24218D14289022A15D1427B037B27
:10DA800010021843C007C00F0CD112E081886980D2
:10DA900001461048082218310C30FDF781FB6F70E9
:10DAA000002E01D101F0EEF8F8BD0020C0436880DF
:10DAB0006F700868FFF7DAFB0028F5D0A16900292C
:10DAC000F2D08847F8BD0822811802480C30FDF7D3
:10DAD00067FBE7E7F4210020982D0020A830020022
:10DAE0007CB5054608880C460930904201D90C20C7
:10DAF0007CBD684671DF0028FAD12188082068546F
:10DB000020881B21401C80B220802954208800A935
:10DB1000401C80B22080401906220131FDF740FBF5
:10DB200020886946801D80B220800978002900D0B5
:10DB3000012129542088401C208000207CBD000049
:10DB40007FB504460121684681714A4981804A4A6D
:10DB500001A90120A0DF00287ED1228825463C357E
:10DB6000002A09D044482B46801C00904348616835
:10DB700000F022FE00287BD12289002A0AD03E48EC
:10DB80002B460A3000903D48E168401F00F014FE2B
:10DB900000286DD1228A002A0AD037482B4612303D
:10DBA000009036486169001F00F006FE00285FD132
:10DBB000228B002A0AD030482B461A3000902F487A
:10DBC000E169801E00F0F8FD002851D1228C002A66
:10DBD0000AD029482B46223000902848616AC01E8E
:10DBE00000F0EAFD002843D1228D002A0AD0224805
:10DBF0002B462A3000902148E16A401E00F0DCFDEF
:10DC0000002835D1216B00290ED002A804F098FD20
:10DC100019482B46323000901848082202A9801F6C
:10DC200000F0CAFD002823D1606B00280BD01249F8
:10DC30002B463A310091027901681048401C00F0EF
:10DC4000BBFD002814D1A16B002910D002A803F05D
:10DC50006BFC0948423000E00AE0009007482B4680
:10DC6000072202A9273000F0A7FD002800D10020DC
:10DC700004B070BD0A1800004C210020292A0000C1
:10DC800010B50446FFF7E4FE21460A4800F048F8C4
:10DC9000204603F045FB2046FFF7EEFC204600F04F
:10DCA00049F9044821460E3800F0F0F8204601F00A
:10DCB000C7F910BD042A002030B5184B0D460400EA
:10DCC0000FCB85B003936B4607C324D0002D22D021
:10DCD0000020C043A0822868A0610020A0752146D2
:10DCE000684663DF002814D12178684681740121D9
:10DCF0000182A21C04A90120A0DF002809D1294625
:10DD0000204604F0BBF9002803D12946204604F040
:10DD100035FE05B030BD0E20FBE70000AC30020040
:10DD200000281ED000291CD00A88102A14D0112ADD
:10DD300014D0502A15D1891D0A88038A9A4202D12B
:10DD40004B89022B0ED083889A420AD18369002B1B
:10DD500007D04A890C311847898801E00021C9435E
:10DD6000818270474A7B0B7B11021943C907C90F97
:10DD700000D001218175704707B584B000280DD00F
:10DD8000828A114B9A420BD0827D002A08D06A46C3
:10DD9000128B142A06D9072007B000BD0E20FBE71E
:10DDA0000820F9E7002200920192029203928289F0
:10DDB0006B461A80039106A9029101219970808A0D
:10DDC0006946A6DFE8E70000FFFF000070B50446E3
:10DDD0000D460846FDF708FA2080656070BD00001A
:10DDE00000B51A4887B040680590002348221849BA
:10DDF00005A804F089FB002801D0FEF797FD6A46CC
:10DE00000121002004F068FB002801D0FEF78EFD00
:10DE1000104804F0ABF9002801D0FEF787FD6846F2
:10DE200004F050FB002801D0FEF780FD0A4804F002
:10DE30003FFB002801D0FEF779FD084804F07EFB87
:10DE4000002801D0FEF772FD07B000BD602F020070
:10DE5000A8220020E81F002081DC010031270200F9
:10DE600038B504460D460121684681700649018097
:10DE7000224669460120A0DF002803D1294620461A
:10DE800004F0CAFD38BD0000041800000A88102AFA
:10DE900001D18988418170471CB5044681786A4662
:10DEA0000C4803F071FB002812D160781C21484314
:10DEB00009491C2340181A46694603F01FFC06480E
:10DEC00006494030807A80000A58214668469047CB
:10DED0001CBD0000A8210020A42B00204C30020013
:10DEE0007CB5134E00250C463060002918D06946D9
:10DEF0000D2000F0ABF8002819D101A90E2000F088
:10DF0000A5F8002813D1684601790020002901D026
:10DF1000022004E069460978002900D00B20207017
:10DF20007068002802D1FEF716FC054628467CBD25
:10DF3000C821002010B51C4C0188606810290DD044
:10DF400011290AD1401E606007D1FEF704FC0028A9
:10DF500003D02168002900D0884710BD00281ED1B9
:10DF6000012200210D2000F07FFA002801D00728AF
:10DF700011D1072202210F2000F076FA002801D0EB
:10DF8000072808D1042202210D2000F06DFA002894
:10DF900005D0072803D02168002900D08847606891
:10DFA000401C606010BD0000C8210020F8B5074685
:10DFB0000024234802E0641C042C1AD2A2008258D8
:10DFC000BA42F8D1042C14D21D481E4E0C38002938
:10DFD00029D001290ED002290BD160002018801908
:10DFE0004578002D05D018480169002901D0284640
:10DFF0008847F8BD61006118755C8E197178002939
:10E000000CD011490A224968806851430E4A521CBB
:10E01000FFF7EEF8002801D10B4847700A48B178A5
:10E0200014300155DDE78068FFF720F906486100EC
:10E03000611814308919005D8D78A842D1D0F8BDDF
:10E0400078300200482C0020B021002004280CD297
:10E05000074A1269074B80001B5C012098409043DF
:10E0600000D001200870002070470020FAE700006F
:10E07000000500507830020010B5FEF7E9FB10BD36
:10E0800010B5FEF7FBFB10BDF8B50646FFF7F4FF31
:10E0900004F09CF904F0CEF9BB4C3127207ABB4D3B
:10E0A000322875D1BB480022B9490068FFF7A0F8B3
:10E0B0000D2E0ED00E2E3BD00F2E6CD0102E69D10F
:10E0C00000F0F4FB01287DD002287CD003286AD11F
:10E0D000D3E000F0EBFB012804D002280ED0032887
:10E0E00061D118E0607808222F54401C6070A74866
:10E0F000A9A11830FFF740FEAAA0C8E0607832213D
:10E100002954401C6070A1480822A7A11830FFF7CD
:10E1100033FEA8A0BBE0607833212954401C607016
:10E120009A480822A4A11830FFF726FEA5A0AEE069
:10E1300000F0BCFB012804D002280FD0032832D104
:10E1400019E0607834212954401C60708F480822FF
:10E150009DA11830FFF710FE9EA098E06078352151
:10E160002954401C6070894808229BA11830FFF791
:10E1700003FE9CA08BE0607836212954401C60701F
:10E180008248082298A11830FFF7F6FD99A07EE09A
:10E1900015E000E08DE000F089FB01282CD002287A
:10E1A00037D0032842D079480C2293A11830FFF7CA
:10E1B000E3FD04F019F904F02BF9FFF761FF207A71
:10E1C000342801E03FE04BE073D1724800227049EF
:10E1D0000068FFF70DF80D2E5CD00E2E7DD00F2EAF
:10E1E00069D0102E65D100F061FB012872D00228A1
:10E1F00071D0032870D1BAE0607837212954401CCF
:10E2000060706248082280A11830FFF7B5FD81A038
:10E210003DE0607838212954401C60705B4808223A
:10E220007DA11830FFF7A8FD7EA030E0607839218D
:10E230002954401C6070554808227BA11830FFF714
:10E240009BFD7CA023E0514809227BA11830FFF7F9
:10E2500093FD7CA0FDF7E2FC6078401E6070A8E7AB
:10E26000607830212954401C60704848092276A10A
:10E270001830FFF781FD77A009E0617846206854E7
:10E280004248092274A11830FFF776FD75A0FDF70A
:10E29000C5FC8EE700F00AFB012804D002280BD051
:10E2A00003286AD10FE060782F54401C60703DA0B5
:10E2B00061E068E011E02EE0607832212954401CD2
:10E2C00060703CA057E0607833212954401C607096
:10E2D0003CA050E03DE043E041E000F0E7FA0128D7
:10E2E00004D0022809D0032847D10DE060783421FA
:10E2F0002954401C607037A03DE0607835212954D6
:10E30000401C607037A036E0607836212954401CEC
:10E31000607038A02FE000F0C9FA012804D002286C
:10E3200009D0032829D10DE0607837212954401CF9
:10E33000607038A01FE0607838212954401C60705C
:10E3400038A018E0607839212954401C607039A049
:10E3500011E03CA0FDF762FC6078401E60700CE0AC
:10E36000607830212954401C60703AA003E0617845
:10E37000462068543BA0FDF751FC04F035F804F04A
:10E3800047F8FFF77DFEF8BD80200020EC29002033
:10E3900066060000602F0200627574746F6E203193
:10E3A0000000000031000000627574746F6E20324E
:10E3B0000000000032000000627574746F6E20333C
:10E3C0000000000033000000627574746F6E20342A
:10E3D0000000000034000000627574746F6E203518
:10E3E0000000000035000000627574746F6E203606
:10E3F0000000000036000000627574746F6E2065C6
:10E4000072726F7200000000627574746F6E203754
:10E410000000000037000000627574746F6E2038D1
:10E420000000000038000000627574746F6E2039BF
:10E430000000000039000000627574746F6E206483
:10E44000656C000064656C00627574746F6E2030DA
:10E450000000000030000000627574746F6E206F61
:10E460006B0000006F6B000070B50023042811D210
:10E47000440004190D4D012A02D101290DD00022BA
:10E4800046008019094E801900290CD0012906D0B8
:10E49000022906D00723184670BD0D30C2B22A5596
:10E4A000F9E74270F7E78270F5E70000482C00209A
:10E4B00010B5054A0146127A0020D20702D008465C
:10E4C00000F054F810BD0000B021002070B50E46D9
:10E4D0001F4905464E608D6000200A61A9071ED5C0
:10E4E0000024012211462046FFF7BEFF641C042CC5
:10E4F00002D20028F5D012E0002810D172080421C1
:10E500001448FEF7CDF9002809D1FEF7B7F9002825
:10E5100005D11048104A00211438FEF7F3FDE90731
:10E5200005D00F490D4A8A600023CB608A6100281C
:10E530000DD108480B4A00211C38FEF7E3FD0028E6
:10E5400005D10448084A01211838FEF7DBFD70BDEB
:10E55000B02100208830020039E7010003000040AC
:10E56000000500501100020039C80100FEB56E4DD3
:10E570006E4AEB6806469A436B6800939C001B1931
:10E580000020019301210746694C3300FDF76DFB24
:10E5900018730D0D2F3F4D5F74777F777FC88B8B7E
:10E5A0008B8B8BB4BABCC2C8C873A260E7606068CA
:10E5B0005E4A521C5040C00709D0A160E760022E9D
:10E5C00002D1E120C0000AE07D20400107E0E160C7
:10E5D000A760022E01D1C82001E0FF2091302E70EB
:10E5E0006421FCF7B3FD0099414300223FE0A260A3
:10E5F000E76060684D4A521C5040C00704D0A160DB
:10E60000E76019204001EAE7E160A760E3E7A26064
:10E61000E7606068454A521C5040C00702D0A160C4
:10E62000E760D1E7E160A760D7E7A260E7606068D4
:10E630003E4A521C5040C00702D0A160E76001E092
:10E64000E160A7602E700098410000220FE0A260F8
:10E65000E7606068354A521C5040C00702D0A16094
:10E66000E76001E0E160A7602E7000990022314868
:10E670000068FEF7BDFDFEBDA260E76010E06068C7
:10E6800002210A468243A2600840E060EDE760682C
:10E6900002210A468243A2600840E0600199D4E763
:10E6A000E160A7602CE023484068FEF7DFFD112100
:10E6B0008A1B01D0002807D01C4AE968521C11406F
:10E6C000A160E760EF60FEBD0221E960012A0CD97C
:10E6D0001046C82148436421FCF738FD69680022D0
:10E6E000414314484068FEF783FD104AE968521C14
:10E6F0001140E160A760FEBD0C49491CA160E760C4
:10E700002E70FEBD094AB7E70849491EA160E760BF
:10E710000221C5E701218907A160E7600321BFE766
:10E720000249491CBCE70000B02100200200004063
:10E73000000500506C30020010B500780221FFF790
:10E7400035FC10BD0022D243830004490428CA507E
:10E7500002D308182030027770470000D42D002023
:10E76000F0B50025ED43002A02D00023042601E085
:10E77000042308260B4C04E09F00E7597F1C04D0BB
:10E780005B1CB342F8D32846F0BD26185DB2203694
:10E7900035709E00A151002AF5D1E118203108778B
:10E7A000F1E70000D42D0020024909182020085666
:10E7B00070470000D42D0020FFB58FB01E461546CF
:10E7C0000F0002D10020FEF7B1F8002D02D1002089
:10E7D000FEF7ACF81C216846FCF7FBFC68460178A4
:10E7E00002200143684601700024019403940494BC
:10E7F0000594012108A80694817068460F99018448
:10E8000007943178017771784177807FF92108404A
:10E81000801CE7210840410849006846817714219F
:10E8200009A8FCF7D6FC08A8099007A80A90684632
:10E830008585C485058604480D9709AA6946008820
:10E84000189BA2DF13B0F0BD4C21002010B5064884
:10E850008079012801D0002010BDFDF74FF8034951
:10E860000120487110BD00005C290020802000209C
:10E8700030B50D480B4940784A78401C82420ED191
:10E8800000200B46B03306E00C18A4781D5CAC42A7
:10E8900005D1401CC0B28242F6D8012030BD002014
:10E8A00030BD00003C2900208020002009490020C4
:10E8B0000A699203D20F09D00A69D204D20F07D095
:10E8C0000969C901C90F00D10320704701207047B1
:10E8D000022070470005005010B50A4880790128D1
:10E8E0000CD10A2002F05AFCFDF708F8054906226F
:10E8F00008461038FCF77FFC002801D0002010BD2E
:10E90000012010BD6C290020F8B53B481422017885
:10E9100051430C18241DA0680C2148433649E76870
:10E92000CC314018058941890091466802F0BAFE51
:10E9300001463846FCF70AFC002940D00020009927
:10E94000A2884D436188AE198918CD1900222B4940
:10E9500000280A6109D002F0A5FE6188884230D003
:10E96000B54202D1A08800282BD0A068022828D068
:10E9700002F098FE0146A088C019FCF7E7FB1F4C87
:10E980008808E06002F08EFE01462846FCF7DEFBB8
:10E9900000292CD0B5422AD0ADB2B6B202F082FE28
:10E9A00001463046FCF7D2FB074602F07BFE0146EB
:10E9B0002846FCF7CBFB87420DD1701B15E00120E8
:10E9C000BDE702F06FFE01463846FCF7BFFB0B497E
:10E9D000486103200CE002F065FE064602F062FE8C
:10E9E00001462846FCF7B2FB701A8008206102201D
:10E9F00003F03AFDF8BD0000382E00201022002060
:10EA000010B50748142201785143081800790428EA
:10EA100002D000F059F810BD012003F025FD10BD13
:10EA2000382E002010B50B481422017851430818E5
:10EA3000094AC18811620079012806D0032801D053
:10EA4000042801D1FFF760FF10BD012003F00CFD89
:10EA500010BD0000382E0020102200201422504348
:10EA6000054A002180180171C18001220161C26044
:10EA70004161018170470000382E0020F8B5104C2C
:10EA8000069E65780A2D19D027787D190A2D00D3A6
:10EA90000A3D14277D432D1928716A6103C9296134
:10EAA000E860EB802E816078401C6070054800783B
:10EAB000002801D1FFF7B6FF0020F8BD0420F8BD03
:10EAC000382E00201022002010B50D4C1421207883
:10EAD00048430119091D0020FDF764FF2078FFF766
:10EAE000BDFF6078401E60702078401CC0B220706E
:10EAF0000A2801D100202070002003F0B5FC10BDD1
:10EB0000382E0020F8B52348C16800293ED00E6891
:10EB100021494C680769C078E11B0D022D0AED1CE4
:10EB2000002814D101201D4A000450601B4A403ABD
:10EB300050601B49400008601A4908601A490120CA
:10EB400008602F20FCF7D6FA12490120C870B542A0
:10EB500000D23546E81900020F4B000A4033186016
:10EB60000D4A5168001B091B0902090A0002C91C51
:10EB7000000A814209D9506818602F20FCF7BAFAC0
:10EB800001200749400480390860F8BD03F038FAD5
:10EB9000F8BD00004822002000150140401301404C
:10EBA00080E200E000E100E000100140F8B5064618
:10EBB000108814468446801D0D46984201D90C20C9
:10EBC000F8BD32880720062AFAD31927FF01184B0F
:10EBD000BA4201D99A42F3D171880629F0D3B942D9
:10EBE00001D99942ECD19A4203D0994201D08A428C
:10EBF000E6D805216046295420881221401C80B2A5
:10EC0000208029542088401C80B2208041193088FF
:10EC100004F048F82188401880B22080411970889B
:10EC200004F040F82188401820800020F8BD000042
:10EC3000FFFF000010B5FDF779FE10BD00B587B0ED
:10EC40001C216846FCF7C5FA0521C90301910F2173
:10EC50000904002002910090032269460A73C881CA
:10EC6000087406480590064806906846FEF7C6FEFA
:10EC7000002801D0FDF75AFE07B000BD3D14020088
:10EC800035EC0100F8B5164801F0C2F8144D002625
:10EC90000C3D144C002807D0616900291CD00120CC
:10ECA0006A461070684616E02878002805D0616929
:10ECB000002911D0684606700DE0687800280DD054
:10ECC000A168094800220068FEF792FA002803D0E4
:10ECD000A169002900D088472E70F8BD6168F0E76F
:10ECE00000220020982D0020A830020070B5094BAA
:10ECF00004469E7A082000250E4207D0064884422A
:10ED000002D01889A04202D10020156070BD0520F4
:10ED100070BD0000D82B0020FFFF00000C214843ED
:10ED2000064910B5012240188272911E0181FF210F
:10ED3000C1720721FCF74DFA10BD0000D82B00204E
:10ED400010B5134C207900071FD46069401C606126
:10ED5000E068002801D0042004E001F08BF80028CE
:10ED600003D0022003F0DAFC10BD2069002809D08E
:10ED70006068C10701D00320F4E701210843606007
:10ED80000020EFE7FFF73CFE10BD03F0BBFC10BD19
:10ED90001022002010B5084841680A0708D48A07E5
:10EDA00002D5012211434160022003F0B7FC10BDDF
:10EDB00003F0A8FC10BD00001022002010B501F0E7
:10EDC000D5FB10BDF8B500260124154D24E0696877
:10EDD000F00047183878214681402A690B461342D3
:10EDE00018D08A432A6101F0C1FC3A782146EB68C9
:10EDF000914019400346934099420BD179780129FB
:10EE000001D0012100E000217B684140002B01D0AE
:10EE100010469847761CF6B228788642D7D3F8BDBC
:10EE200034220020FEB50E46044681786A46234807
:10EE300002F0AAFB002827D160780C21204F48431C
:10EE4000C019807A400620D4022E1ED0012E1ED07A
:10EE50001C4DA0781C21484319490023F83941185A
:10EE60001C226846A847002813D0022E0CD0207818
:10EE70000C21484312490C314018807A1249800015
:10EE80000A58214668469047FEBD104DE1E7104DF7
:10EE9000DFE7022EF8D060780C214843C019817A50
:10EEA000BF221140817260781C21484304493439E3
:10EEB00041181C231A466846A847D8E7A821002015
:10EEC000D82B0020892602003C3002003D190200A8
:10EED0006118020070B50546114A124800241C232F
:10EEE00063431B189B7EFF2B04D0641C072CF6D3B6
:10EEF000104670BD0A78022A09D01C2262431018FD
:10EF0000FD22827610300722FCF74AF904E01C212A
:10EF100061430818FE2181762C700022E8E700008A
:10EF200043800000E02A0020F7B505250F4F064674
:10EF30000024002E0AD01C206043C0191030072284
:10EF40003146FCF758F9002807D00AE01C2060433E
:10EF5000C019018B0298814203D1019800250460F9
:10EF600002E0641C072CE4D32846FEBDE02A002002
:10EF70007CB5054681B26A46074802F005FB0400ED
:10EF800008D15421684602F029FB040002D128462A
:10EF900002F08CFA20467CBDA821002070B5054601
:10EFA0000C46100001D0FDF7C1FC2078142801D0D8
:10EFB000212804D1042229460248FCF7F1F8002058
:10EFC00070BD0000982000201FB5694608731A48DC
:10EFD00000F01AFA002801D0FDF7A8FC02F068FB47
:10EFE000002801D0FDF7A2FC03A800F01BFA0028BE
:10EFF00001D0FDF79BFC01A805210130FCF7E9F8E1
:10F0000069464979012001438122114030314A0685
:10F01000520E69464A7107228A711022CA71074945
:10F0200000916946087104480E3800F045FB00283D
:10F0300001D0FDF77BFC1FBD982000209DEF010053
:10F04000F0B591B00546FF24002007940290E948EE
:10F050000078002849D0E84F3868002845D001A83A
:10F0600000F0D2F9002801D0FDF760FC281D0590C2
:10F070002C2069460883FF20002688710E710396B4
:10F08000DD4C28880C3C10280ED0A88803AA022149
:10F09000FFF72CFE002807D103980C2141430919E2
:10F0A000CA7A69468A7148712A881320192A7DD044
:10F0B0000FDC102A1BD0112A55D0132A77D0142A1E
:10F0C00013D103980C2148430019C07AFF286FD050
:10F0D000A1E0CA491A2A6CD01E2A65D0522A04D14E
:10F0E000B87A8000095801A8884711B0F0BDC44F14
:10F0F00003AA01213846FFF7F9FD0028F5D103994D
:10F100000C20484302220019827211236A461374AC
:10F110005171A98801812946083107220091FCF725
:10F120003FF8E87DC10707D04108B2480830405C8D
:10F13000FF2808D0079006E03A4607A90098FFF795
:10F14000F3FE002837D103990C225143091907987F
:10F15000C8728A7A08231A438A726946887101A89C
:10F16000FEF79AFE27E003980C2148430119887A9C
:10F17000FD2210408872010706D5C0090DD000217C
:10F1800001A8FFF74FFE08E068468079FF2804D009
:10F1900002F08CF9FF206946887103980C225043D5
:10F1A0001021001981721220694603E08BE043E0D0
:10F1B00014E0E4E00874324604A901A8FDF7C2FB9C
:10F1C0006846007C122890D103980C21414309190C
:10F1D000897A012989D0FFF7A1FD86E72A8A07A944
:10F1E0000020FFF7A1FE00280ED103990C22514305
:10F1F00009190798C8728A7A08231A438A726946DD
:10F20000887101A8FEF748FE03980C2148430019B5
:10F21000C07AFF2806D003981C214843764940391C
:10F220004018029003981C21484376494218A88848
:10F230000023029986DF58E76946087403980C2179
:10F2400048430119887A042210438872CA7AFF2A37
:10F250000BD04022104388721620694608740023A0
:10F26000A8881A4685217FDF21E007A8FFF732FE34
:10F2700000281FD0064600200D9003990C224A4317
:10F280001219D27A1C235A435E4B0F90D2180E9259
:10F290001C2251431A46C4328918109009910A90D1
:10F2A0000B900C903A1DA88809AB00217FDF002845
:10F2B00093D180E769460798887103990C225143DE
:10F2C0000919C872D7E7787A0C2140084000787293
:10F2D00003986F4602464843011984468B7AFB2007
:10F2E00003408B7214203874287A002806D0580600
:10F2F000DFD4C87AFFF73CFE2E7A5CE7687A4007D5
:10F30000D7D5B879FF28D4D008273B438B726B7BC5
:10F310009B0708D51C2503466B433A4D5B199D7E20
:10F320006D086D009D76CB7AFF2BC2D06346E35CFF
:10F33000022B10D01C225043324D072240191030AE
:10F34000FBF72EFF684680791C2148434019817ED7
:10F35000FD2211400DE01C214A4327494039511834
:10F360004A8A1C214843274940180283817E490864
:10F3700049008176012101A8FFF754FD1BE7287A97
:10F380000209012A23D10007000F01281FD1039889
:10F390000C2242431219927A120718D518214843B9
:10F3A00015492439401808300E21FBF712FF1620AA
:10F3B0006946087403980C2148430119887A602231
:10F3C00010438872787A0221084378720FE003981C
:10F3D0000C2250430019827A80231A43827215202E
:10F3E0006A461074B87A8000095801A88847002638
:10F3F000E1E6000098210020E42B00205C300200B0
:10F40000FFFF0000E02A0020002806D0FF21017045
:10F4100041708170C1700020704701487047000042
:10F420000E800000F0B585B0040036D029480025D4
:10F430000560457285722846FFF770FC2548182143
:10F440002438FBF7C6FE0026FF27304602F02EF8D0
:10F4500021488755761C072EF7D3542168468180B2
:10F460000721C1801D481C4900900831684602F000
:10F4700099F900280FD1184E0120083E30702078ED
:10F4800000280CD069468888C988484381B2304634
:10F49000103002F0A3F805B0F0BD1148FBE7114FA2
:10F4A00000240D48A1B202AA083002F06DF800282D
:10F4B00009D11C206043C01900231C2202A902F0BC
:10F4C0001DF9002801D03570E5E7641C072CE8D34E
:10F4D000E1E70000E42B0020A021002065F50100F9
:10F4E0000E800000E02A00200B4610B519491A4A88
:10F4F000097800292CD0911D002805D0002B03D0BD
:10F500000178002924D101E0084610BD134909689B
:10F5100000291DD0104A8178D21EFF2908D01C2056
:10F5200041430F480918887E800711D410310AE042
:10F530004078FF280CD00C21484308490C39411869
:10F54000887A800704D507221846FBF729FE002297
:10F55000104610BD9821002008800000E42B0020F8
:10F56000E02A0020FFB5514893B000681C9F1E465A
:10F57000002863D0542F61D804A8FFF745FF002866
:10F5800001D0FDF7D3F900246846047404702546C1
:10F5900006970796A9B210AA454801F0F5FF002882
:10F5A00006D1082210A91398FBF725FE002817D0D2
:10F5B0006D1C072DEED36846857CFF2D3ED0149838
:10F5C000032810D03B481C21301AFBF7BFFD012750
:10F5D000072820D205A80190159800280DD013E027
:10F5E00068468574E7E7542F05D0402069460870C7
:10F5F000C0B203214DE02020F8E738462C49A8404E
:10F6000010394968084219D0284603F051FB2020E0
:10F610006946087037E025481C214038301AFBF74E
:10F6200095FD00280CD0214D1821243D701BFBF7BF
:10F630008DFD002819D040206946087017B0F0BD34
:10F6400005A801902020694608704C7417490C9455
:10F650000C310D914C3908911C214D4315490690F0
:10F660006918099108A907910DE0302168460170D9
:10F670004474C7740D480C38807A800703D4284638
:10F680001821FBF7A6FD14986946022808780AD0CD
:10F69000022108436946087005A8019004A8159A3C
:10F6A000FDF750F9CAE73843F5E70000E42B0020E6
:10F6B000A8210020E02A002070B5064618480D4613
:10F6C000007800280ED01749002E0ED0002D0CD047
:10F6D0002868002809D0144C2168002907D0114857
:10F6E0000A3870BD0F48801F70BD084670BD20608D
:10F6F0000522691D201DFBF753FD2879A072207A91
:10F700000221400840000843FB2210402072E079AB
:10F710000123184308431040E0710020307070BD91
:10F72000982100200E800000E42B0020F0B5284A2C
:10F73000284B1278002A2BD09A1D00280BD00029C4
:10F7400009D00C68002C06D08C68002C03D00078FF
:10F7500000281DD101E01046F0BD1F4800680028B8
:10F7600016D000231C4C1A4618460C3CE57A8542FC
:10F7700002D1A57AAD0724D40D7B954211D91C2561
:10F7800006466E43154D7519AE7EF60702D008E0A9
:10F790001846F0BD8E689700F5510D4D0835A854F8
:10F7A000521C0D799D420CD91C2506466E430B4D0B
:10F7B0007519AE7EB60704D410359F000E685B1C29
:10F7C000F551401C0728D1D30B710A730020F0BDFE
:10F7D0009821002008800000E42B0020E02A00206F
:10F7E00010B50E4900234A788C78A24212D0521CE0
:10F7F000D2B24A70022A00D14B704A78074B92006D
:10F8000018339A580260086910180002000A08614B
:10F81000012010BD0360002010BD00004822002020
:10F82000416803480269914201D10021017070478B
:10F8300080200020826883881A4003689A5C0A70DE
:10F840008168491C81607047C26883881A400368D8
:10F850009954C168491CC1607047000010B5002868
:10F8600003D0112802D0FDF7B3F810BD02480822DA
:10F8700041681143416010BD1022002010B51C4C9E
:10F88000217820464068012906D0022929D0032981
:10F8900012D1000717D513E0000711D41548142220
:10F8A000017851430818C188A28B891A0904090CF0
:10F8B000C18002D002F0EAFE10BDFFF705F910BDCD
:10F8C00000F0BEFD10BD6069401C606100F0D2FA1E
:10F8D000002803D0207802F0C7FD10BDFFF790F894
:10F8E00010BD6078044980000858804710BD0000B2
:10F8F00010220020382E00201031020010B528DF21
:10F90000FFF7ACFF10BD10B529DFFFF7A7FF10BD53
:10F9100010B50446C0B2FDF73DFD204610BD000005
:10F92000002804D00349496D01600020704703207E
:10F9300070470000302F002010B588B014221849FD
:10F9400001A8FBF72DFC17481649007840310870D4
:10F95000002001AA0B5C1418401CC0B2A372072837
:10F96000F8D3112069460870024601A968467CDF79
:10F97000002801D0FCF7DAFF002006900C2269462F
:10F9800007900A8330224A838883FF209130C883FE
:10F9900006A87ADF002801D0FCF7C8FF08B010BD28
:10F9A000682F02003C29002000207047002070478B
:10F9B00000207047F8B506464078182104464C43AD
:10F9C00024490C2250436118224A00254B68183202
:10F9D0008018AE462F469C46002B0CD0827A1346E8
:10F9E000D20908D05A0606D40D461A4A614689B291
:10F9F000175908358E46174C008918343B46724615
:10FA00002946A9DF0B2819D0002800D01248012F61
:10FA100013D170780C214843001900890F4AA7DFE1
:10FA200000280AD00E49884212D0082810D0891C1C
:10FA300088420DD011280BD00020F8BD70780C2121
:10FA4000484301230019008972462946A9DFE0E7EF
:10FA50000148F8BDC02B002041800000FFFF0000DE
:10FA60000230000070B50C46014660781822084D3F
:10FA700050434019382301F041FE002807D1617836
:10FA80001822514349194A68521C00D14A6070BD7E
:10FA9000C02B0020F3B585B00D460E2069460882C4
:10FAA00068780C2103274843224E3B468019008981
:10FAB00004AA6946AADF002838D16878182148438B
:10FAC000741A0019694608300A8AFBF794FB00286B
:10FAD000687807D0182148430119496800290DD0DA
:10FAE000154E0CE00C2141438919897A89071DD4F0
:10FAF000182148430019FBF76CFB17E00F4E275005
:10FB00006846028A6878182148430019426068787C
:10FB10004843001908306946FBF742FB6878182112
:10FB200048430119382318220598B047002007B030
:10FB3000F0BD0000D82B00203D1902006118020022
:10FB400010B5FFF737FF10BD10B5FFF78BFF10BDE5
:10FB500010B5FFF79FFF10BD10B50F4C02202070AD
:10FB60000121204603F09EF9002805D140212046BE
:10FB700002F0D4F9002801DA002010BD2078074AED
:10FB80000102607808430102A07808430102E0788E
:10FB90000843506110BD0000202A0020F4200020FE
:10FBA000F8B50746114E0125BD403068FDF75EFBF4
:10FBB000002806D10E4C20690146294202D0A843F4
:10FBC0002061F8BD384600F0D1FD0028E06801D082
:10FBD000284300E0A843E060206900222843206118
:10FBE000A1683068FDF704FBF8BD00002431020075
:10FBF0003422002070B51B4C207900072ED41A48FF
:10FC00001422017851430D182E6901F04BFD014675
:10FC1000E8882A89761E80188019FBF797FA2169EF
:10FC20000025002909D06169814206D1E56060683C
:10FC300001210843606000200AE000F01BF9002861
:10FC400002D00220E56003E02069002803D00320F1
:10FC500002F064FD70BDFEF7D3FE70BD02F052FDF0
:10FC600070BD000010220020382E0020F8B51C4C7A
:10FC70002078002833D02069002807D00026E068CB
:10FC8000002805D00025002E04D011E00126F6E75B
:10FC90000125F8E7684652DF052804D0002804D083
:10FCA000FCF744FE04E0012602E021690098884741
:10FCB000002D10D1608869460880A06861DF0528A2
:10FCC00004D0002804D0FCF731FE04E0012502E056
:10FCD000E168A0688847002EDCD0002DD3D0F8BDA5
:10FCE0006C22002010B5002001F033FA012001F051
:10FCF00030FA1E2001F02DFA002001F04FFA012009
:10FD000001F04CFA1E2001F049FA052001F021FA19
:10FD1000022001F01EFA042001F01BFA0E490868C7
:10FD2000022290430860092001F013FA092001F033
:10FD300035FA082001F00DFAFF20084C0130A060D0
:10FD40000A2001F006FA01208002A06002F04CFBBC
:10FD500002F05EFB10BD00000C07005000050050D3
:10FD6000F7B50025164604462F4616E0A800FF30DA
:10FD70004130012109042258A940002A0BD0032256
:10FD80001202A21852680A4205D02750019A01991E
:10FD90001268496890476D1CEDB2B542E6D3FEBDCE
:10FDA00010B5FBF721FE0220FBF76EFEFBF78AFE83
:10FDB000C007034CC00FA070FBF70CFEA07810BD6D
:10FDC000252100200121814003484068014201D0E3
:10FDD000012070470020704734210020012181401C
:10FDE00003484078014201D001207047002070474D
:10FDF00034210020014610B501208840FDF76CFB3E
:10FE000010BD01218140880700D00120704700000B
:10FE1000418805480288914204D34088814201D834
:10FE20000120704700207047F82100201048018C05
:10FE3000C9B2012917D1818C090714D1018D090696
:10FE40000A0F03D1828D1206120F0ED0090F01295D
:10FE500003D1828D1206120F07D0032903D1808DA2
:10FE60000006000F01D000207047012070470000FD
:10FE7000C00F00F070B50E481422017851430C18E1
:10FE8000256901F00FFC0146E08822896D1E80186B
:10FE90004019FBF75BF907494A69824206D382425F
:10FEA00002D10869002801D0002070BD012070BD7A
:10FEB000382E00201022002001218140880400D02B
:10FEC00001207047800701D0002070470120704753
:10FED000F8B536A00068364C0090A0780025401C8C
:10FEE000C0B2344FA070642809D965700A21324825
:10FEF000FBF76FF9A5703868FDF7B8F9F8BD2E4B20
:10FF00002B492046227A1E460124C03E4978322AD7
:10FF10001BD0342AF2D15A5C462AEFD1002931D0C5
:10FF2000042219466846FBF766F900282DD0FEF733
:10FF30009FFC002807D00A211F48FBF74AF902F06E
:10FF400029FA02F001FA1A4CCFE75A5C462AD5D1B9
:10FF500033220029327004D04A1C72700022491CDE
:10FF60000AE0154990398C7108E0134B9E5CC03B48
:10FF70009B18521C9E70D2B28A42F6D34471C4714F
:10FF80000446B2E7FEF7A8FCD3E735203070042022
:10FF9000707009496846C4390088C880684640883E
:10FFA000088103484471C471CDE7000038383846F1
:10FFB00080200020602F0200EC29002030B5158839
:10FFC000EC1C9C4201D90C2030BD02244C551388F6
:10FFD0001C255B1C9BB21380CD5413885B1C9BB209
:10FFE0001380012807D0022807D0032807D004284F
:10FFF00007D0072030BD002004E0012002E0CC54EF
:020000040002F8
:1000000001E00320C8541088401C1080002030BD3F
:1000100010B50448017AC90702D00078FEF7A6FAA5
:1000200010BD0000B0210020F8B52C49C8680A694D
:100030000C780F7989688646944600913EE00099D5
:10004000E20055182A7836E0182353436968521C99
:10005000C918AB78D2B2934200D100220B78022BA0
:1000600002D0032B27D123E04E680346014603E06C
:10007000B14204D00B46C96900291CD0F8E7002919
:1000800019D08B4208D1C069002805D1144F012630
:10009000BE600026B44601270E68C969D9610029EF
:1000A00009D00B689B190B6005E00174C06900E082
:1000B00000210028F9D169789142C5D12146641EFA
:1000C000E4B20029BBD1054962460A61C8600F71DC
:1000D000704501D00120F8BD0020F8BD4822002065
:1000E00000100140F8B5044631480026C16800916F
:1000F00007784EE02E48F90080680D1843E0002C88
:1001000002D02046E4691FE02878182141436A683C
:10011000401CC0B251182870AA78904200D12E70AD
:100120000A784868012A30D1027C002A2DD18A68D9
:100130004260CA6882600A69C260496981611C497B
:100140000979002900D04660194943680A699C462C
:10015000991A0902174B090A994202D28268891832
:1001600007E06146511A09028268090A8A4202D9E7
:10017000511A016000E0066046600121866001744A
:10018000C66102F05DFB002CB9D1287869788842FD
:10019000BAD138467F1EFFB20028ABD10448C168EF
:1001A0000098814201D00120F8BD0020F8BD000078
:1001B00048220020FFFF7F0088B0794B794A0B214D
:1001C0000020FCF7CDFF002801D0FCF7AFFB764AFA
:1001D00001217648FCF796FF002801D0FCF7A6FB2A
:1001E000FCF706FC714A04AB1C3207CA07C3FF21A7
:1001F00001316F4800904018019103910290032350
:100200006C4A694604A8FDF775F8002801D0FCF790
:100210008DFB01F027FCFFF765FD674A6749022067
:10022000FEF754F9002801D0FCF780FB6946002056
:10023000FDF756FE002801D0FCF778FB68460078F1
:10024000022813D0002069465D4D08715D4C287866
:10025000207202F079F8227A0120303A312113001D
:10026000FBF703FD06061A2B3F576D800120EAE7D6
:1002700029706071A071FDF7B3FD01F069FF0120E5
:10028000FEF7A2FEFFF758FBFCF784FA02F004F831
:10029000FEF7D4FC4CA04CE0FDF7A2FD01F058FFA6
:1002A0000120FEF791FEFFF747FBFCF773FA01F020
:1002B000F3FFFEF7C3FC48A051E0FDF791FD01F00C
:1002C00047FF0020FEF780FEFFF736FBFCF762FADF
:1002D00001F0E2FFFEF7B2FC43A0FBF79FFC042015
:1002E0002AE0FEF7B3FAFDF77BFD01F031FF0020B5
:1002F000FEF76AFEFFF720FBFCF74CFA01F0CCFF9B
:10030000FEF79CFC3DA0FBF789FCFEF79FFA03205B
:1003100012E0FDF765FD01F01BFF0020FEF754FE23
:10032000FFF70AFBFCF736FA01F0B6FFFEF786FC92
:1003300036A0FBF773FC0020FDF740FA26E0FDF73E
:100340004FFD01F005FF0120FEF73EFEFFF7F4FA36
:10035000FCF720FA01F0A0FFFEF770FC30A0FBF7DD
:100360005DFCD4E729706071A071FDF739FD01F0E3
:10037000EFFE0120FEF728FEFFF7DEFAFCF70AFA8F
:1003800001F08AFFFEF75AFC29A0D2E7FCF794FEA1
:1003900048DF002801D0FCF7C9FAFDF717F8F5E7A8
:1003A00049D10100B4250020D1FE0100602F0200D8
:1003B00004230020A12A020089E00100CD0C0000E6
:1003C0002C290020802000200D0A206E65775F62B6
:1003D000696B65210D0A00000D0A206F6E5F6C6F5E
:1003E00067696E210D0A00000D0A206F6E5F73743D
:1003F0006174696F6E210D0A000000000D0A206F04
:100400006E5F6C6F616E210D0A0000000D0A206F97
:1004100075745F737461696F6E210D0A00000000CE
:100420000D0A206F6E5F6261636B210D0A00000090
:100430000D0A2064656661756C74210D0A00000068
:1004400010B504480822416891434160007802F0E9
:100450000BF810BD1022002070B5144682880546A6
:100460000E46921C2088911C4118994201D8FE2A00
:1004700001D90C2070BD521C32542088FF21401C31
:1004800080B2208031542088401C80B220808119A5
:10049000288802F007FC2188401880B22080AA88B2
:1004A000002A09D0A968002908D08019FAF778FE37
:1004B0002088A98840182080002070BD072070BDCA
:1004C000F8B50F46017814460546012902D168782F
:1004D000002806D02088821C9A422DD8012902D0FB
:1004E00006E00720F8BD69784118891C994223D895
:1004F000181A801E86B2684606802188B81C081823
:1005000069467DDF0028EDD12878022805D16946AB
:100510000988B14201D809210AE00821012805D142
:100520006878B04202D86A46108001E068460680CA
:1005300068460088FE2801D90C20F8BD2288401C9E
:10054000B8542088401C80B22080395420886946E5
:10055000401C20800988401820800020F8BD002021
:1005600070470020704700207047000031B5054CEF
:1005700004E0401E00902046FAF7ACFD00980028E9
:10058000F7D138BDE70300008207D30EFF229A405F
:100590008907090E10B5994000280BDA03071B0FD5
:1005A000083B9C080C4BA400E318DC6994430C4303
:1005B000DC6107E08408094BA400E4182368934336
:1005C0000B432360C106C90E01208840044908601E
:1005D0000449086010BD000000ED00E000E400E008
:1005E00080E200E000E100E010B5044600F084FF86
:1005F000002804D00021204600F0C0FD10BD204698
:1006000000F086FF0028F9D02046FEF7CDF8064915
:10061000820051180A69520852000A610121814082
:100620000248816010BD000000650040006300408A
:10063000F3B581B00F46019800F05EFF0124002859
:100640001E4E019817D0FEF7AFF880192030007FBA
:100650008009032802D001280BD005E01848006962
:1006600001998C40204204D00321019800F086FDBE
:10067000FEBD0221F9E700F04BFF0028F8D00198F9
:10068000FEF792F805468100C81D0E4AF930891818
:100690000A6980B222430A610B49401800210160B7
:1006A000002FE5D00198FEF77FF880003058002831
:1006B000DED00648AC404460FEBD0000D42D0020D2
:1006C00000050050006500400060004000630040ED
:1006D000FEB515460E460446002700F003FF00282D
:1006E00001D0082738E0F27829462046FEF738F88E
:1006F0000546401C2FD0B078002807D01748A1002D
:100700000918086802229043086007E00021737806
:10071000204600910A46019100F0DCFCF0780028A8
:1007200010D00F48AA001018317802690D4B1A40FA
:100730000261E206D20C8907890B0A4301690A4368
:10074000026109E00848327840192030017F9201A7
:100750001143017700E004273846FEBD0007005032
:1007600000650040FFE0FCFFD42D0020034909692B
:10077000C140C807C00F00D00120704700050050DD
:1007800070B5124D2879002801D0082070BD0F499E
:1007900000204039421E0B182033401CC0B21A7092
:1007A0002028F8D300242046FDF7CCFF641CE4B2D7
:1007B000082CF8D303210620FFF7E6FE01200449A8
:1007C000C007486001202871002070BD142E002051
:1007D0000063004002480079002800D001207047E3
:1007E000142E0020FEB5044620480D4600190026B0
:1007F00020308157491C01D0082633E0A978002910
:100800001DD0012200212046FDF7AAFF411C14D073
:10081000830017482A78181869780369154F3B40F8
:1008200003610369E706FF0C9207920BC907C90A27
:100830003B430A431343036104E0042612E0012111
:10084000C94301706A780120A0400B49012A0BD0EE
:10085000C860002100910B460122019120461146FB
:1008600000F038FC3046FEBD8860F2E7D42D002051
:1008700000650040FFE0ECFF0005005010B5FDF7FB
:1008800093FF80060149000E401810BD0060004033
:1008900005490918202008568100044808180169F4
:1008A0008908890001617047D42D0020006500404F
:1008B00009490918202008568100084809180869C4
:1008C000032210431F22120202430A6100BF00BF2D
:1008D00000BF086170470000D42D00200065004073
:1008E000002900D00121074A12182020105682004A
:1008F00005481218106901231B0598430905084390
:1009000010617047D42D00200065004010B50446EA
:1009100000F0FEFD00280DD02046FDF745FFC0B2D7
:10092000FDF710FF2046FDF73FFF074A002180003A
:1009300080180161054800210019C9432030017069
:10094000204600F0EBFB10BD00650040D42D0020D8
:10095000F1B50427164E82B00024002069460870C5
:100960006846FCF785FD0125A5402846304204D0A5
:100970002046FFF727FA00280CD068460078FCF7DD
:1009800095FD002F04D0641CAE43E4B2002EE4D1E8
:100990003846FEBD074901204A68A0401043486020
:1009A00002980027047068460078FCF77FFDEFE7A7
:1009B000FF3F00003421002070B514460D000646AC
:1009C00011D0002C0FD0FFF777FA00280DD0304659
:1009D000FFF7F8F900280AD00648F1000818056169
:1009E0004461002070BD0E2070BD072070BD08203E
:1009F00070BD000000F5014010B50446FFF7FAF99C
:100A000000280FD02046FFF757FA002804D02046D0
:100A1000FFF7D8F9002807D001200449A0408860DA
:100A2000002010BD072010BD082010BD00F50140BA
:100A300010B50446FFF7DEF900280FD02046FFF777
:100A40003BFA002804D02046FFF7BCF9002807D065
:100A500001200449A0404860002010BD072010BDBF
:100A6000082010BD00F5014038B50546FFF724FA0F
:100A7000002812D001240A48AC4084600021684656
:100A80000170FCF7F5FC07484168A14341606846E6
:100A90000078FCF70BFD002038BD072038BD0000B2
:100AA00000F501403421002038B505460C460846C3
:100AB000FFF7A7F900281CD02046FFF78FF9002880
:100AC00015D02846FCF708FD002812D00021684602
